{
  "contractName": "Citizen",
  "abi": [
    {
      "constant": true,
      "inputs": [],
      "name": "owner",
      "outputs": [
        {
          "name": "",
          "type": "address"
        }
      ],
      "payable": false,
      "stateMutability": "view",
      "type": "function"
    },
    {
      "constant": false,
      "inputs": [
        {
          "name": "newOwner",
          "type": "address"
        }
      ],
      "name": "transferOwnership",
      "outputs": [],
      "payable": false,
      "stateMutability": "nonpayable",
      "type": "function"
    },
    {
      "inputs": [
        {
          "name": "first_name",
          "type": "string"
        },
        {
          "name": "family_name",
          "type": "string"
        },
        {
          "name": "datavault_link",
          "type": "string"
        },
        {
          "name": "citizen_address",
          "type": "address"
        },
        {
          "name": "manager_address",
          "type": "address"
        }
      ],
      "payable": false,
      "stateMutability": "nonpayable",
      "type": "constructor"
    },
    {
      "anonymous": false,
      "inputs": [
        {
          "indexed": true,
          "name": "previousOwner",
          "type": "address"
        },
        {
          "indexed": true,
          "name": "newOwner",
          "type": "address"
        }
      ],
      "name": "OwnershipTransferred",
      "type": "event"
    },
    {
      "constant": false,
      "inputs": [
        {
          "name": "approval",
          "type": "bool"
        }
      ],
      "name": "SendApproval",
      "outputs": [],
      "payable": false,
      "stateMutability": "nonpayable",
      "type": "function"
    },
    {
      "constant": false,
      "inputs": [],
      "name": "Quit",
      "outputs": [],
      "payable": false,
      "stateMutability": "nonpayable",
      "type": "function"
    },
    {
      "constant": false,
      "inputs": [],
      "name": "Remove",
      "outputs": [],
      "payable": false,
      "stateMutability": "nonpayable",
      "type": "function"
    },
    {
      "constant": false,
      "inputs": [
        {
          "name": "dataname",
          "type": "string"
        },
        {
          "name": "price",
          "type": "uint256"
        }
      ],
      "name": "AskData",
      "outputs": [],
      "payable": false,
      "stateMutability": "nonpayable",
      "type": "function"
    }
  ],
  "bytecode": "0x608060405234801561001057600080fd5b506040516107733803806107738339810180604052810190808051820192919060200180518201929190602001805182019291906020018051906020019092919080519060200190929190505050336000806101000a81548173ffffffffffffffffffffffffffffffffffffffff021916908373ffffffffffffffffffffffffffffffffffffffff16021790555084600190805190602001906100b492919061018a565b5083600290805190602001906100cb92919061018a565b5082600390805190602001906100e292919061018a565b5081600460006101000a81548173ffffffffffffffffffffffffffffffffffffffff021916908373ffffffffffffffffffffffffffffffffffffffff16021790555080600560006101000a81548173ffffffffffffffffffffffffffffffffffffffff021916908373ffffffffffffffffffffffffffffffffffffffff1602179055506000600560146101000a81548160ff021916908315150217905550505050505061022f565b828054600181600116156101000203166002900490600052602060002090601f016020900481019282601f106101cb57805160ff19168380011785556101f9565b828001600101855582156101f9579182015b828111156101f85782518255916020019190600101906101dd565b5b509050610206919061020a565b5090565b61022c91905b80821115610228576000816000905550600101610210565b5090565b90565b6105358061023e6000396000f300608060405260043610610078576000357c0100000000000000000000000000000000000000000000000000000000900463ffffffff1680630f1bbc0f1461007d57806313953985146100945780636424bd8c146100c35780637b4be72a146100da5780638da5cb5b1461014d578063f2fde38b146101a4575b600080fd5b34801561008957600080fd5b506100926101e7565b005b3480156100a057600080fd5b506100c160048036038101908080351515906020019092919050505061027c565b005b3480156100cf57600080fd5b506100d86102f5565b005b3480156100e657600080fd5b5061014b600480360381019080803590602001908201803590602001908080601f01602080910402602001604051908101604052809392919081815260200183838082843782019150505050505091929192908035906020019092919050505061038b565b005b34801561015957600080fd5b5061016261038f565b604051808273ffffffffffffffffffffffffffffffffffffffff1673ffffffffffffffffffffffffffffffffffffffff16815260200191505060405180910390f35b3480156101b057600080fd5b506101e5600480360381019080803573ffffffffffffffffffffffffffffffffffffffff1690602001909291905050506103b4565b005b6000809054906101000a900473ffffffffffffffffffffffffffffffffffffffff1673ffffffffffffffffffffffffffffffffffffffff163373ffffffffffffffffffffffffffffffffffffffff1614151561024257600080fd5b6000809054906101000a900473ffffffffffffffffffffffffffffffffffffffff1673ffffffffffffffffffffffffffffffffffffffff16ff5b600560009054906101000a900473ffffffffffffffffffffffffffffffffffffffff1673ffffffffffffffffffffffffffffffffffffffff163373ffffffffffffffffffffffffffffffffffffffff161415156102d857600080fd5b80600560146101000a81548160ff02191690831515021790555050565b600560009054906101000a900473ffffffffffffffffffffffffffffffffffffffff1673ffffffffffffffffffffffffffffffffffffffff163373ffffffffffffffffffffffffffffffffffffffff1614151561035157600080fd5b6000809054906101000a900473ffffffffffffffffffffffffffffffffffffffff1673ffffffffffffffffffffffffffffffffffffffff16ff5b5050565b6000809054906101000a900473ffffffffffffffffffffffffffffffffffffffff1681565b6000809054906101000a900473ffffffffffffffffffffffffffffffffffffffff1673ffffffffffffffffffffffffffffffffffffffff163373ffffffffffffffffffffffffffffffffffffffff1614151561040f57600080fd5b600073ffffffffffffffffffffffffffffffffffffffff168173ffffffffffffffffffffffffffffffffffffffff161415151561044b57600080fd5b8073ffffffffffffffffffffffffffffffffffffffff166000809054906101000a900473ffffffffffffffffffffffffffffffffffffffff1673ffffffffffffffffffffffffffffffffffffffff167f8be0079c531659141344cd1fd0a4f28419497f9722a3daafe3b4186f6b6457e060405160405180910390a3806000806101000a81548173ffffffffffffffffffffffffffffffffffffffff021916908373ffffffffffffffffffffffffffffffffffffffff160217905550505600a165627a7a723058201d001ff8cd2ebd0607913b002ddba39ecb40b5a848697b5091db609baaa904190029",
  "source": "pragma solidity ^0.4.21;\n\n\n/**\n * @title Citizen\n * Smart contract that represent a citizen with name, data vault link and dc wallet\n */\n\n\nimport 'openzeppelin-solidity/contracts/ownership/Ownable.sol';\n\n\n\ncontract Citizen is Ownable {\n\n  string firstName;\n  string familyName;\n  string dataLink;\n  address citizenAddress;\n  address manager;\n  bool approved;\n  \n  \n  \n\n  constructor(string first_name, string family_name, string datavault_link, address citizen_address, address manager_address ) public {\n    firstName = first_name;\n    familyName = family_name;    \n    dataLink = datavault_link;\n    citizenAddress = citizen_address;\n    manager = manager_address;    \n    approved = false;\n  }\n  \n  function SendApproval(bool approval) onlyManager public{\n    approved = approval;\n  }\n\n  function Quit() onlyOwner public{\n  \tselfdestruct(owner);\n  }\n  \n  function Remove() onlyManager public{\n  \tselfdestruct(owner);\n  }\n  \n  function AskData(string dataname, uint256 price) public {\n  \t//dataLink.call(dataname,price); // how to make link to data ??\n  }\n  \n  modifier onlyManager() {\n    require(msg.sender == manager);\n    _;\n  }\n  \n  \n\n\n}\n",
  "sourcePath": "/home/mohamed0/Bureau/Braincities/reactBox/contracts/Citizen.sol",
  "compiler": {
    "name": "solc",
    "version": "0.4.23+commit.124ca40d.Emscripten.clang"
  },
  "schemaVersion": "2.0.0",
  "updatedAt": "2018-04-29T15:13:40.863Z"
}